:020000040800F2
:10000000E8200020450100086F1F0008D7120008F3
:100010006B1F0008950A0008A535000800000000C5
:10002000000000000000000000000000212E000879
:10003000550C000800000000C92C0008892F00089A
:100040005F0100085F0100085F0100085F01000810
:100050005F0100085F0100085F0100085F01000800
:100060005F010008D10F0008051000085F010008BB
:100070005F0100085F0100085F0100085F010008E0
:100080005F0100085F0100085F0100085F010008D0
:100090005F0100085F0100085F0100085F010008C0
:1000A0005F0100085F0100085F0100085F010008B0
:1000B000ED2F0008213100085F0100085F010008F2
:1000C0005F0100085F0100085F0100085F01000890
:1000D0005F010008DD320008F93200085F01000806
:1000E0005F0100085F0100085F0100085F01000870
:1000F0005F0100085F0100085F0100085F01000860
:100100005F0100085F0100085F0100085F0100084F
:100110005F0100085F0100085F0100085F0100083F
:100120005F0100085F0100085F0100085F0100082F
:10013000DFF80CD000F0A2FB00480047594400084B
:10014000E82000200648804706480047FEE7FEE713
:10015000FEE7FEE7FEE7FEE7FEE7FEE7FEE7FEE777
:100160008D2F000831010008A0F14101192900D8A4
:100170002030704740EA01039B0703D009E008C91B
:10018000121F08C0042AFAD203E011F8013B00F85C
:10019000013B521EF9D27047D2B201E000F8012BA8
:1001A000491EFBD270470022F6E710B513460A46F7
:1001B00004461946FFF7F0FF204610BD30B505464E
:1001C0002A460B4612F8010B13F8014B08B1A04266
:1001D000F8D01CB1002802D06D1CF1E7284630BDD4
:1001E000CAB2401E10F8011F8A4202D00029F9D17C
:1001F00000207047421C10F8011B0029FBD1801A17
:10020000704710B5044600E0401C0378002BFBD17A
:1002100000E0401C521E04D311F8013B0370002B78
:10022000F7D100210170204610BD30B505460020F1
:10023000034600E05B1C934205D2EC5CC85C201ACC
:1002400001D1002CF6D130BD70B5064603F0D2FACC
:10025000046805460A220021304600F0DBF92C60D4
:1002600070BD2DE9FE4F804681EA0300C00F0C46A9
:10027000009021F0004123F00045B8EB0200A941B5
:1002800005D24046214690461C460B46024623F0C6
:100290000040104347D0270DC7F30A00C3F30A51AB
:1002A0000290401A019040286BDAC3F3130040F427
:1002B000801B0098924620B10023D2EB030A63EB27
:1002C0000B0B01985946C0F14002504600F071F9FD
:1002D00006460D4650465946019A00F089F910EB42
:1002E00008006141002487EA115284EAE7731A4347
:1002F00040D0009A62B3019A012A4FEA075215DCF6
:10030000001B61EB02014FF0004202EA0752CDE907
:100310000042001C41F5801132462B4600F0C1F925
:1003200003B0BDE8F08F40462146F9E7001B61EBC2
:100330000201001C41F5801300185B412018A2F552
:10034000001747EB030140EAD570B6196D4111E083
:100350006D084FEA360645EAC0754FEA0752001BA2
:1003600061EB0201001C41F5801149084FEA3000A1
:100370000019514132462B4603B0BDE8F04F00F062
:1003800081B90098012240000023D0EB020263EB08
:10039000E073009821464FEAE074B8EB000061EB8F
:1003A0000401E9E783F000435BE781F0004158E78F
:1003B0002DE9FE4F81EA030404F0004421F00041DE
:1003C00000944FF0000B23F0004350EA01045ED08C
:1003D00052EA03045BD0C3F30A54C1F30A552C4418
:1003E000A4F2F3340194A0FB0254C1F3130141F4CD
:1003F0008011C3F3130343F4801301FB024400FB99
:10040000034E840A970A44EA815447EA8357A4FBBF
:10041000076802958D0A05FB07854FEA932C04FBBC
:100420000C542705029D4FEA065847EA1637B5EBEC
:1004300008056EEB070C870E920E47EA811742EA19
:100440008312A7FB0201B6EB0B0164EB00042B0D3A
:1004500043EA0C335E1844EB1C50DA465146E7FB86
:100460000201C5F313044FEA0B3343EA14534FEA76
:100470000432019C43EA0603A4F10C040294009C9C
:10048000CDE900B400F00DF903B0BDE8F08F002015
:100490000146F9E70EB5C10F80EAE0700844CA07CB
:1004A000002140F233438DE80E000A460B4600F06F
:1004B000F8F803B000BD70B5C1F30A5201F0004571
:1004C0000024C1F3130140F2FF3341F480119A423A
:1004D00001DA002070BD40F233439A42A2F2334267
:1004E00003DC524200F074F800E090402C43F1D05D
:1004F000404270BD30B5041E71F1000404DB4FF0C2
:100500000044404264EB0101141E73F1000405DB5A
:100510001C464FF00043524263EB0403994208BF6C
:10052000904230BD30B50B46014600202022012408
:1005300009E021FA02F59D4205D303FA02F5491BB1
:1005400004FA02F52844151EA2F10102F1DC30BDC7
:100550002DE9F05F0546002092469B4688460646F8
:10056000814640241BE0284641464746224600F08B
:100570002FF853465A46C01A914110D311461846D7
:10058000224600F016F82D1A67EB01084F46224666
:100590000120002100F00DF817EB00094E41201E4C
:1005A000A4F10104DFDC484631462A464346BDE853
:1005B000F09F202A04DB203A00FA02F10020704765
:1005C0009140C2F1200320FA03F319439040704791
:1005D000202A04DB203A21FA02F00021704721FA98
:1005E00002F3D040C2F120029140084319467047FF
:1005F000202A06DBCB17203A41FA02F043EAE073E7
:1006000006E041FA02F3D040C2F1200291400843D3
:10061000194670472DE9F04791460F46804604463B
:10062000002614F8015B2DB100F03AF90068405D36
:10063000C007F6D12B2D02D02D2D18D0641E4A46AE
:100640003946204600F030F927B13968A14201D17E
:10065000C7F8008071054FF002040BD54042002816
:1006600003DD03F0C7F80460A007BDE8F08746F497
:100670008066E4E70028F8DA03F0BCF804606FF065
:100680000040F2E710B5141E73F1000408DA401CB4
:1006900041F1000192185B411A4301D120F00100A1
:1006A00010BD2DE9F04D92469B4611B1B1FA81F291
:1006B00002E0B0FA80F220329046FFF77AFF04465B
:1006C0000F4640EA0A0041EA0B0153465A460843E6
:1006D00013D0114653EA010019D0C8F14002504628
:1006E000FFF776FF05460E46504659464246FFF74D
:1006F00060FF084305D0012004E020463946BDE8EC
:10070000F08D0020054346EAE0762C4337430A98F3
:100710006305E40AA0EB08000022FD0A44EA4754FE
:100720000A3002D500200146E9E7010510196941A8
:10073000DDE9084500196941BDE8F04DA2E72DE962
:10074000F04D81EA030404F0004B21F0004514460B
:100750004FF0000A23F0004150EA050220D054EA8D
:1007600001021DD0C5F30A570246C5F31303C1F3B6
:100770001300C1F30A5640F4801543F48013A7EB2D
:100780000608101BD64608F2FD3873EB050002D3AD
:1007900008F1010801E092185B41B8F1000F03DA9B
:1007A00000200146BDE8F08D00204FF48011064680
:1007B00084460EE0171B73EB050705D3121B63EB92
:1007C000050306434CEA010C49084FEA3000921831
:1007D0005B4150EA0107EDD152EA030012D082EAF0
:1007E000040083EA0501084305D0101BAB4106D283
:1007F0000122002306E000224FF0004302E06FF0E8
:10080000010253101AEB06004CEB085110EB0A00E2
:1008100041EB0B01BDE8F04DFFF734BF70B521F09F
:10082000004303430CD0C1F30A550024D5EB040563
:1008300064EB0403D617AD1AB34102DB0020014676
:1008400070BD201841EB025170BDC1F30A52C1F3D3
:10085000130140F2FF3341F480119A4202DA002082
:100860000146704740F233439A42A2F2334202DC1F
:100870005242FFF7ADBEFFF79CBE0000064C074D8D
:1008800006E0E06840F0010394E807009847103460
:10089000AC42F6D3FFF750FC00710008207100084D
:1008A00000487047EC7000082DE9F05F8246007840
:1008B000002715468B460AF10104B946302801D0BD
:1008C0009DB113E014F8010B0127782803D05828B4
:1008D00001D045B10AE00DB1102D07D10027102538
:1008E00014F8010B02E0082500E00A250026B046B6
:1008F0000EE005FB080005FB06F1012701EB1046A1
:100900001FFA80F8B6F5803F00D3B94614F8010B02
:10091000294600F069F80028EBDABBF1000F05D09A
:100920000FB1641E00E05446CBF80040B9F1000F4F
:1009300006D002F05FFF02210160C81EBDE8F09FF3
:1009400048EA0640FAE72DE9F04D00231A461B1A43
:100950008A4103DB00200146BDE8F08DC1F30A5255
:10096000C1F3130141F480154FF0000BD10702D100
:1009700000186D41521E0027044640F2FF11384610
:1009800001EB620A3E468046024600204FF4801189
:10099000FFF71EFEC2197141BB1846EB0100B4EB14
:1009A000030C75EB000C04D3E41A65EB0005174645
:1009B0000E46241908F101006D4180463428E3DD1C
:1009C000F91946EB0600091BA84103D24FF0FF328C
:1009D000134601E0002213461BEB070046EB0A51C9
:1009E000BDE8F04DFFF74EBE3A2800D2303820F077
:1009F0002002412A01D3A2F13700884201D34FF0EF
:100A0000FF30704770B58C1810F8015B15F00703C4
:100A100001D110F8013B2A1106D110F8012B03E097
:100A200010F8016B01F8016B5B1EF9D12B0705D49F
:100A30000023521E0DD401F8013BFAE710F8013BE8
:100A4000CB1A921C03E013F8015B01F8015B521E04
:100A5000F9D5A142D8D3002070BD000008B501210E
:100A6000082002F053F94FF48070ADF80000102018
:100A70008DF8030003208DF802006946044800F059
:100A80008DFB4FF48071024800F01CFC08BD000093
:100A9000000C014000BFFEE710B500241548406877
:100AA00020F47040134948600846406840F4004014
:100AB000486004E0601CC4B2012003F07FFC0E48D3
:100AC000006808B1642CF5DB642C01DB012010BD4B
:100AD000002404E0601CC4B2012003F06FFC06484F
:100AE000006808B9642CF5DB642C01DB0120EEE71B
:100AF0000020ECE7002001402C01244208B5012130
:100B0000080202F003F94FF40060ADF80000102075
:100B10008DF8030003208DF802006946064800F0B6
:100B20003DFB4FF40061044800F0CEFB00F072F88A
:100B3000FFF7B2FF08BD00000020014010B50024FF
:100B400004E0601CC4B2012003F038FC0D480068CA
:100B500008B1642CF5DB002404E0601CC4B2012061
:100B600003F02CFC0748006808B9642CF5DB28204A
:100B700003F024FC0348006808B1012010BD0020E8
:100B8000FCE700002C01244270B50024002506E09B
:100B90006006040EFFF7D2FF0443681CC5B2082D9F
:100BA000F6DB204670BD2DE9FC4105460E46174692
:100BB000984600F02FF8FFF76FFF30BB002405E0E8
:100BC000FFF7E2FF0DF80400601CC4B2052CF7DB50
:100BD0009DF800009DF8011008449DF8021008449B
:100BE0009DF8031008449DF80410884210D19DF828
:100BF000000038709DF8010088F800009DF80200A0
:100C000028709DF80300307002E00120BDE8FC81EF
:100C10000020FBE710B50C48406820F470400A49FA
:100C200048600846406840F440504860002007494A
:100C30000860142003F09CFB01200549C1F8AC01B9
:100C40001E2003F0BBFB10BD00200140AC0124427C
:100C5000000024427047000010B580210348FFF7D0
:100C6000A2FA00200249088010BD0000681A002086
:100C7000AC13002070B50546002400BF00F08EF9CB
:100C800080B90DA10E48FFF799FA044654B13A21F4
:100C90002046FFF7A5FA044614B1641C204670BD37
:100CA0000020FCE7052003F063FB681E85B2002DE1
:100CB000E4DC0020F3E700004950442C0000000071
:100CC000681A002008B50121042002F01FF8102046
:100CD0008DF803008002ADF8000003208DF80200BB
:100CE0006946404800F05AFA00224FF480413D48DE
:100CF00000F0ECFAFA2003F03BFB012291033948A3
:100D000000F0E4FA4FF4FA7003F032FBFFF7A4FFAF
:100D100035A1374802F0E4FC03E04FF4FA7003F029
:100D200027FB34A134A000F0EBF80028F5D134A162
:100D30002F4802F0D5FC03E04FF4FA7003F018FBE3
:100D40002EA132A000F0DCF80028F5D103E04FF42A
:100D5000FA7003F00DFB29A12FA000F0D1F80028B4
:100D6000F5D131A1224802F0BBFC03E04FF4FA7048
:100D700003F0FEFA1FA12FA000F0C2F80028F5D161
:100D800030A11B4802F0ACFC03E04FF4FA7003F012
:100D9000EFFA18A12FA000F0B3F80028F5D131A187
:100DA000134802F09DFC03E04FF4FA7003F0E0FA00
:100DB0002FA131A000F0A4F80028F5D139A10C48EA
:100DC00002F08EFC03E04FF4FA7003F0D1FA39A17F
:100DD0003AA000F095F80028F5D143A1044802F0AC
:100DE0007FFC08BD00100140302E2041540D0A0048
:100DF000003801404F4B000041540D0A0000000034
:100E0000312E205253540D0A0000000041542B5241
:100E100053543D310D0A000041542B434950434C7B
:100E20004F53450D0A000000322E2043574D4F44CA
:100E3000450D0A0041542B43574D4F44453D310D5C
:100E40000A000000332E2041542B4357444843509E
:100E50000D0A000041542B4357444843503D312C68
:100E6000310D0A00342E2043574A41500D0A00002C
:100E7000474F54204950000041542B43574A41509A
:100E80003D2254502D4C494E4B5F4544454435431B
:100E9000222C2231323334353637383961626322BD
:100EA0000D0A0000352E2043495053544152540D31
:100EB0000A000000434F4E4E4543540041542B431B
:100EC000495053544152543D22544350222C2262E3
:100ED000726F6B65722E656D71782E696F222C3181
:100EE0003838330D0A000000362E20455350383272
:100EF000363620496E6974204F4B0D0A0000000001
:100F00002DE9F04104460D46C8262046FFF772F948
:100F100087B23A4621460D4802F006FC0FE000F089
:100F20003DF848B929460A48FFF748F920B1FFF7CC
:100F300093FE0020BDE8F0810A2003F019FA30008A
:100F4000A6F10101CEB2EAD10120F3E7004400404E
:100F5000681A002030B589B004460D46FFF77CFEC4
:100F60002A4608A101A802F0F9FB0AA101A8FFF78F
:100F7000C7FF20B92A462146074802F0D5FB09B031
:100F800030BD000041542B43495053454E443D254C
:100F9000640D0A003E000000004400400A4800883A
:100FA00008B9012070470848008808490988884224
:100FB00003D1002004490880F4E70348008803496E
:100FC00008800120EEE70000AC130020AE130020E3
:100FD00010B50A2003F0CCF90821074800F069F9A0
:100FE00028B900200549086001200549087008203B
:100FF00000F064F810BD0000001801409481214207
:101000000400002010B50A2003F0B2F910210848AE
:1010100000F04FF940B90120064908600020064958
:10102000C1F8A00105490870102000F047F810BD74
:1010300000180140948121420080214204000020D8
:101040000EB500F085F90121084601F05FFE03218D
:10105000042000F083F80820019000208DF808009B
:101060000C208DF8090001A800F02EF80421084694
:1010700000F074F81020019001A800F025F8092074
:101080008DF8000002208DF8010001208DF802008B
:101090008DF80300684600F06BFF0A208DF8000011
:1010A00002208DF8010000208DF8020001208DF84B
:1010B0000300684600F05CFF0EBD000001490860B7
:1010C0007047000014040140002123498279002A5E
:1010D0003AD00A46126803689A430B461A600A1D02
:1010E000126803689A430B1D1A60027911440A685A
:1010F00003681A430A60184A0832126803689A4360
:10110000154B08331A601A1D126803689A43124B74
:101110000C331A604279102A0ED11A1F1268036824
:101120001A430D4B08331A601A1D126803681A43DC
:10113000094B0C331A600DE00749427911440A68E3
:1011400003681A430A6005E0027911440A680368DB
:101150009A430A60704700000004014030B5002245
:101160008B071C0F0F2303FA04F20B4B8C1053F860
:1011700024309343084C8D1044F8253023468C10BE
:1011800053F824308C07240F00FA04F42343024C54
:101190008D1044F8253030BD080001402DE9F041A4
:1011A000024600250026002000230024002791F895
:1011B00003C00CF00F0591F803C00CF0100CBCF14B
:1011C000000F03D091F802C04CEA050591F800C069
:1011D000BCF1000F31D0146800202BE04FF0010C5F
:1011E0000CFA00F3B1F800C00CEA03069E4220D1CD
:1011F00083004FF00F0C0CFA03F7BC4305FA03FC15
:101200004CEA040491F803C0BCF1280F06D14FF05A
:10121000010C0CFA00FCC2F814C00AE091F803C0FB
:10122000BCF1480F05D14FF0010C0CFA00FCC2F8DC
:1012300010C0401C0828D1D31460B1F800C0BCF124
:10124000FF0F34DD546800202EE000F1080C4FF051
:10125000010808FA0CF3B1F800C00CEA03069E423C
:1012600021D183004FF00F0C0CFA03F7BC4305FAB1
:1012700003FC4CEA040491F803C0BCF1280F05D12B
:1012800000F1080C08FA0CF8C2F8148091F803C0B9
:10129000BCF1480F07D100F1080C4FF0010808FA23
:1012A0000CF8C2F81080401C0828CED35460BDE86A
:1012B000F0810246002093680B400BB1012000E052
:1012C0000020704741617047016170470AB10161B8
:1012D00000E04161704700BFFEE7000010B520212B
:1012E0000848FFF7F1FF4FF480510748FFF7ECFF84
:1012F00020210448FFF7E6FF4FF480510248FFF732
:10130000E1FF10BD001401400020014010B54FF472
:1013100080510648FFF7D8FF20210548FFF7D2FF8C
:1013200020210348FFF7D0FF10BD0000002001403E
:101330000014014010B54FF480510448FFF7C4FF7A
:101340004FF480510148FFF7BDFF10BD0020014060
:1013500008B50121442001F0D9FC1820ADF80000A7
:1013600048208DF8030069460648FFF717FF012063
:10137000ADF8000028208DF8030069460248FFF709
:101380000DFF08BD001801400008014008B501210B
:10139000482001F0BBFC2020ADF8000010208DF8A3
:1013A000030003208DF8020069460948FFF7F6FEA6
:1013B00020210748FFF788FF2020ADF8000069468C
:1013C0000448FFF7EBFE20210248FFF77DFF08BD30
:1013D000000C01400018014010B50446207B012894
:1013E00002D1206803F010F8002020606060A06047
:1013F000207310BD0246002301230DE002F07F00A0
:101400000870D2092AB1087840F080000870491CA1
:1014100001E0184670475B1C042BEFDD4FF0FF30F6
:10142000F8E770B504460E460025206898B90120FB
:101430002073304603F0ECF820602068E0B1002013
:101440006060A66003E00020216848556D1CA0681C
:10145000A842F8D810E00220207303E000202168A1
:1014600048556D1CA068A842F8D800206060A068AC
:10147000B04201D20020206070BD00002DE9FF5F66
:1014800007460D4690463846FEF7B4FE86B228461B
:10149000FEF7B0FE1FFA80FA4FF00009F01D03F0CE
:1014A000B7F804461CB9012004B0BDE8F09FF11D57
:1014B0002046FEF778FE12A0016821608088A08097
:1014C000324639462046FEF79CFE2846FEF792FE3D
:1014D00083460120002100915B462A46CDE902089F
:1014E000019121460A2000F05FF910B94FF0000980
:1014F00001E04FF00109204602F086FF4846D3E79D
:1015000024637273702F00002DE9FF4F83B0824671
:101510008B469146159C0025002002900F270190D4
:101520004846FEF767FE0FFA80F8B9F1000F03D1C5
:10153000012007B0BDE8F08F08F10200384487B2FF
:10154000109808B145F00205129878B145F00405ED
:101550001298FEF74FFEC0B202901398FEF74AFEB3
:1015600001460298001D0844384487B2119820B102
:10157000012804D0022808D104E000BF07E045F0AC
:101580000C0504E045F0140501E00220D1E700BF9E
:10159000149808B145F02405BAF1000F02D0BBF150
:1015A000000F01D10320C4E745F0C0055046FEF707
:1015B00021FE06465846FEF71DFE3044001D384405
:1015C00087B239462046FFF72CFF206808B904206F
:1015D000AFE739462068FEF7E6FD10216268501C2F
:1015E000606020688154D4E90023D118781FFFF788
:1015F00001FF00B201900198002804DA2046FFF7AD
:10160000EBFE052095E761680198084460600021C1
:101610006268501C60602068815404216268501C1C
:101620006060206881544D216268501C60602068B1
:10163000815451216268501C60602068815454219B
:101640006268501C6060206881546268501C606051
:101650002068815404216268501C606020688154B5
:101660006168481C6060206845540698010A6268F9
:10167000501C6060206881540698C1B26268501C9A
:10168000606020688154C8F307216268501C606064
:10169000206881546268501C6060206800F80280F5
:1016A000D4E90012881842464946FEF7AAFD606850
:1016B0004044606005F00400B8B30026139808B9F0
:1016C00038A013901298FEF795FD86B2310A626831
:1016D000501C6060206881546268501C6060206803
:1016E0008654D4E90012881832461299FEF789FD13
:1016F0006068304460601398FEF77CFD86B2310A62
:101700006268501C6060206881546268501C606090
:1017100020688654D4E90012881832461399FEF7DF
:1017200070FD60683044606000BF05F08000C8B1A3
:101730005046FEF75FFD86B2310A6268501C606059
:10174000206881546268501C606020688654D4E927
:101750000012881832465146FEF753FD6068304447
:10176000606000BF05F04000C8B15846FEF742FD7A
:1017700086B2310A6268501C6060206881546268D9
:10178000501C606020688654D4E9001288183246E4
:101790005946FEF736FD60683044606000BF0020A7
:1017A000C7E60000000000002DE9FF4F83B083462C
:1017B00017469946139C00250026002002900190B0
:1017C0008046BBF1000F03D1012007B0BDE8F08FC8
:1017D00000260AE00498805D232803D00498805DE9
:1017E0002B2801D10220F0E7761C0498805D0028A8
:1017F000F0D148F03008119808B148F0010806EB24
:101800000900851C109820B1012804D002280AD1B3
:1018100005E000BF09E048F00208AD1C05E048F013
:101820000408AD1C01E00320CFE700BF8FB3387878
:10183000022821D14FF0000A00BF50460AF1010AE8
:10184000385C7D28F9D1AAF1030A0AF10700029059
:101850000298A9EB000AE81CA0EB0A012046FFF75A
:10186000E0FD206808B90420AFE7EA1CA2EB0A01FA
:101870002068FEF798FC19E0691D2046FFF7D1FDAE
:10188000206808B90420A0E7691D2068FEF78BFCDA
:101890000CE0FFE7691D2046FFF7C3FD206808B98B
:1018A000042092E7691D2068FEF77DFC6168481CF2
:1018B0006060206800F80180D4E9000281182846A1
:1018C000FFF798FD01900198002804DA2046FFF701
:1018D00083FD052079E76168019808446060C6F3DC
:1018E00007216268501C6060206881546268501C47
:1018F000606020688654D4E9001288183246049942
:10190000FEF77FFC606830446060109860B14FEA79
:101910001B216268501C6060206881546268501C02
:101920006060206800F802B0C7B1387802280BD197
:10193000D4E9001288183946029AFEF71BFC616848
:1019400002980844606009E0D4E9001288184A4609
:101950003946FEF70FFC606848446060002034E7B9
:1019600070B505460C4604212046FFF75AFD206855
:1019700008B9012070BD40216268501C6060206879
:10198000815402216268501C6060206881542912D1
:101990006268501C6060206881546268501C6060FE
:1019A000206885540020E5E770B505460C46042103
:1019B0002046FFF736FD206808B9012070BD702170
:1019C0006268501C60602068815402216268501C6B
:1019D00060602068815429126268501C6060206831
:1019E00081546268501C6060206885540020E5E7DF
:1019F00070B505460C4604212046FFF712FD20680D
:101A000008B9012070BD50216268501C60602068D8
:101A1000815402216268501C606020688154291240
:101A20006268501C6060206881546268501C60606D
:101A3000206885540020E5E770B505460C46042172
:101A40002046FFF7EEFC206808B9012070BD622136
:101A50006268501C60602068815402216268501CDA
:101A600060602068815429126268501C60602068A0
:101A700081546268501C6060206885540020E5E74E
:101A80002DE9FF5F8046174699460E9C0026B24618
:101A9000B3460025B8F1000F03D1012004B0BDE822
:101AA000F09F0BE057F8250008B90220F6E757F839
:101AB0002500FEF79FFB0644681CC5B24D45F1DBCF
:101AC00009EB4900801C00EB060A0AF105012046DB
:101AD000FFF7A7FC206808B90320DFE782216268CE
:101AE000501C606020688154D4E90002811850467F
:101AF000FFF780FC0FFA80FBBBF1000F04DA2046F1
:101B0000FFF76AFC0420C9E76068584460604FEA48
:101B100018216268501C6060206881546268501C03
:101B20006060206800F80280002524E057F8250056
:101B3000FEF760FB0646C6F307216268501C606032
:101B4000206881546268501C606020688654D4E923
:101B50000023D01857F825103246FEF752FB606874
:101B6000304460600198C1B26268501C60602068B7
:101B70008154681CC5B24D45D8DB00208EE7F0B516
:101B800004460D462646012300201060002114E083
:101B9000775C07F07F07106807FB03001060705C3C
:101BA00000F0800008B9481CF0BDDB01B3F5001F50
:101BB00002D36FF00100F7E7491CA942E8DB4FF0C0
:101BC000FF30F1E72DE9F84380460C4615461E46E6
:101BD0002F2108F10600FEF703FB074600200090C6
:101BE00017B90120BDE8F8837F1C6A46042108F17B
:101BF0000100FFF7C4FF252002F00AFD20602068E5
:101C000008B90220EEE725212068FEF7CCFA24224D
:101C100039462068FEF7AEFA243700982C38308019
:101C20003188481C02F0F4FC2860286820B920683C
:101C300002F0EAFB0320D5E73288511C2868FEF742
:101C4000B2FA328839462868FEF794FA0020C9E7CC
:101C500001464878022801D001207047887810B1E9
:101C60008878012801D1C878F7E7FF20F5E7000060
:101C70002DE9FC5F81460D4614461E46DDE90C8BBE
:101C800099F8000000F00F0A002001900AF0080007
:101C90000090CAF341008BF8000001AA042109F169
:101CA0000100FFF76CFF4844471C0198022802D34B
:101CB0000AF0010010B1FF20BDE8FC9F7878397868
:101CC00040EA012020802088801C0199884201D9A7
:101CD000FF20F1E754A1B81CFEF770FA08B10F20FD
:101CE000EAE79BF8000020B101283DD0022877D117
:101CF0003BE0009808B1FF20DEE72188481C02F095
:101D000087FC2860286808B9FF20D5E72288511C85
:101D10002868FEF748FA2288B91C2868FEF72AFAD4
:101D20000198801E2188401AA8F80000B8F8001019
:101D3000481C02F06DFC3060306820B9286802F061
:101D400063FBFF20B8E7B8F80020511C3068FEF7AD
:101D50002AFAB8F80020B4F800C0BB1C0CEB030151
:101D60003068FEF707FA4FE000BF2088801C019919
:101D7000884201D9FF209FE72088C01C395C208859
:101D8000801C385C41EA00210E9801800E9808B949
:101D9000FF2091E72188481C02F03AFC286028685F
:101DA00008B9FF2088E72288511C2868FEF7FBF954
:101DB0002288B91C2868FEF7DDF90198001F2188E8
:101DC000401AA8F80000B8F80010481C02F020FCE7
:101DD0003060306828B9286802F016FBFF206BE7F6
:101DE00010E0B8F80020511C3068FEF7DCF9B8F8B4
:101DF0000020B4F800C03B1D0CEB03013068FEF777
:101E0000B9F901E0FF2057E700BF2B212846FEF774
:101E1000E7F920B923212846FEF7E2F908B1FF20AF
:101E20004AE7002048E70000246372657100000063
:101E300001464878022801D001207047887820B9EF
:101E4000C8780A2801D10020F7E70120F5E701460C
:101E50004878022801D001207047887820B9C878D6
:101E60000A2801D10020F7E70120F5E7014648786C
:101E7000022801D001207047887820B9C8780A2844
:101E800001D10020F7E70120F5E70246507802284B
:101E900001D0012070479078B0EB112F05D1D07898
:101EA000CBB2984201D10020F4E70120F2E7000014
:101EB000F8B50446FF2720780511012D01DB0E2D12
:101EC00001DD3846F8BD032D24D1002000906A467C
:101ED0000421601CFFF753FE2044461C0098022892
:101EE00003D3207800F0010008B1FF20EAE7707802
:101EF000317840EA0120801C0099884201D9FF20F6
:101F0000E0E706A1B01CFEF759F908B10F2700E081
:101F1000032700E02F463846D4E7000024637265AB
:101F2000710000000146FF208A78A2B9CA78142AFD
:101F300011D10A7932B1012A05D0022A04D0802AAF
:101F400006D103E000BF00BF002003E0012001E054
:101F5000022000BF00BF7047014601208A781AB9ED
:101F6000CA781E2A00D10020704700BFFEE77047E4
:101F700070B5002100230F22C47804B3154C2468E7
:101F800004F4E064C4F5E064210AC1F10403CA402A
:101F9000447804FA03F184781440214309010E4C7B
:101FA0000678A155047804F01F050124AC4005789B
:101FB0006D11AD0005F1E025C5F8004109E0047898
:101FC00004F01F050124AC40044D0678761145F855
:101FD000264070BD0CED00E000E400E080E100E090
:101FE00002490143024A1160704700000000FA05EF
:101FF0000CED00E070B500240CE0002506E00020A8
:10200000074901EBC5010855681CC5B2802DF6DBF8
:10201000601CC4B2082CF0DB00F02EF970BD00008B
:10202000CC14002070B50B46CE1701EB5676C6F3E4
:10203000C702CE1701EB5676F610A1EBC606F4B236
:102040000123A340DDB20E4B03EBC0039B5CDB43DB
:102050000B4E06EBC006B354094B03EBC0039B5C6D
:102060002B43074E06EBC006B354054B03EBC003EE
:102070009B5CDB43024E06EBC006B35470BD000010
:10208000CC14002010B504461CB90021A62000F095
:102090003CFA012C03D10021A72000F036FA10BD34
:1020A00010B504463CB90021C82000F02EFA0021EA
:1020B000A12000F02AFA012C07D10021C02000F055
:1020C00024FA0021A02000F020FA10BD70B50A46C5
:1020D000CE1701EB5676C6F3C703CE1701EB567643
:1020E000F610A1EBC606F4B20122A240D5B2054A11
:1020F00002EBC002D25C2A43024E06EBC006F25449
:1021000070BD0000CC14002008B501214FF4B07060
:1021100000F0FCFD4FF48050ADF8000010208DF869
:10212000030003208DF8020069465048FFF736F897
:102130004FF480514D48FFF7C7F848F22200ADF840
:10214000000010208DF8030003208DF8020069467E
:102150004748FFF723F848F222014548FFF7B4F853
:102160004FF4A060ADF8000010208DF803000320AC
:102170008DF8020069463F48FFF710F84FF4A06160
:102180003C48FFF7A1F80021AE2000F0BEF9002185
:10219000084600F0BAF90021102000F0B6F900213D
:1021A000402000F0B2F90021812000F0AEF90021BA
:1021B000CF2000F0AAF90021A12000F0A6F900210B
:1021C000C82000F0A2F90021A62000F09EF900210D
:1021D000A82000F09AF900213F2000F096F9002194
:1021E000D32000F092F90021084600F08EF900217A
:1021F000D52000F08AF90021802000F086F9002126
:10220000D92000F082F90021F12000F07EF90021B0
:10221000DA2000F07AF90021122000F076F900218E
:10222000DB2000F072F90021402000F06EF900215F
:10223000202000F06AF90021022000F066F9002158
:102240008D2000F062F90021142000F05EF90021D9
:10225000A42000F05AF90021A62000F056F9002130
:10226000AF2000F052F9FFF7C5FE08BD0020014085
:10227000001401400018014070B500241CE004F176
:10228000B001C8B2002100F040F90021084600F07A
:102290003CF90021102000F038F9002508E0084939
:1022A00001EBC501085D012100F02FF9681CC5B2E2
:1022B000802DF4DB601CC4B2082CE0DB70BD000094
:1022C000CC1400202DE9FF4F81B080460E461C46FD
:1022D00000962046E31704EB5373DB1021464FEAC8
:1022E000E47C04EB5C7C4FEAEC0CA4EBCC0CBCF182
:1022F000000F02D04FF0010C01E04FF0000C6344DE
:10230000224604EBD27C4FEA6C0C03FB0CF303F087
:10231000FF0B03982038C7B2002547E00C2C07D1EB
:1023200007EB4700234901EB800010F805A014E0FB
:10233000102C05D1204800EB071010F805A00CE088
:10234000182C07D107EBC7001C4901EB800010F8DF
:1023500005A002E005B0BDE8F08F4FF000091FE0D6
:102360000AF0800020B131464046FFF7AFFE03E09F
:1023700031464046FFF756FE4FEA4A604FEA106A80
:10238000701CC6B20098301AA04205D1009E08F118
:10239000010000F0FF0806E009F1010000F0FF096C
:1023A000B9F1080FDCDB00BF681CC5B25D45B5DBC9
:1023B00000BFCFE70C580008805C0008706200087E
:1023C0002DE9FF4F0746884691461C464FF0000B0B
:1023D0000297CDF804802046E11704EB5171C1F358
:1023E000C701009160E009FB04F0C11700EB5171D7
:1023F0000BEBE101CEB20BF1010000F0FF0B002569
:1024000050E0102C05D12C4800EB0610405D0390E5
:102410001BE0182C07D106EBC600284901EBC000D1
:10242000405D039011E0202C05D1254800EBC6103B
:10243000405D039009E0402C05D1224800EB462086
:10244000405D039001E0BDE8FF8F4FF0000A17E008
:10245000039800F0010020B141463846FFF736FEF0
:1024600003E041463846FFF7DDFD03984010039036
:1024700008F1010000F0FF080AF1010000F0FF0A76
:10248000BAF1080FE4DB781CC7B20298381AA042F0
:1024900004D1029F01980830C0B20190DDF8048099
:1024A000681CC5B2A542ACDB0098411EC9B20091C0
:1024B000002898D100BFC6E71C000020BC00002007
:1024C0009401002094030020F0B506460F46144600
:1024D0001D4613E022782B4639463046FFF7F2FEC0
:1024E000284605EBD07106EB6101CEB2C5F1800044
:1024F000B04202DA0026B81CC7B2641C207820283B
:1025000002DB20787E28E5DDF0BD70B505460C467F
:10251000FEF7E4FE782000F085FCFEF70BFF1CB10F
:10252000402000F07FFC02E0002000F07BFCFEF782
:1025300001FF284600F076FCFEF7FCFEFEF7E6FE03
:1025400070BD000030B58BB0002007900890099056
:102550000A90012530A033A334A236A1009041484F
:1025600001F0BEF807A8002102910391CDE9041003
:1025700000912B0228A201912AA12CA0FEF7C4FFF2
:10258000002842D1089A91B20798FEF7E3FCFA209E
:10259000FEF770FB0446002C33D02046FFF788FC82
:1025A00002282ED12046FFF753FB062823D2DFE86E
:1025B00000F003090E13181D2BA12A4801F090F812
:1025C00000251DE02DA1274801F08AF818E032A16E
:1025D000244801F085F813E038A1224801F080F882
:1025E0000EE03EA11F4801F07BF809E044A11D4820
:1025F00001F076F804E04DA11A4801F071F800BF2F
:1026000000BF07A8FEF7E8FE03E04FA1154801F060
:1026100067F828460BB030BD3733303232323830AD
:1026200031000000313233340000000034333633DF
:10263000323500004F6E654E65745F4465764C69B7
:102640006E6B0D0A50524F49443A2025732C0941B4
:102650005549463A2025732C0944455649443A25A4
:10266000730D0A0000380140546970733A09C1AC17
:10267000BDD3B3C9B9A60D0A000000005741524EA0
:102680003A09C1ACBDD3CAA7B0DCA3BAD0ADD2E978
:10269000B4EDCEF30D0A00005741524E3A09C1ACD9
:1026A000BDD3CAA7B0DCA3BAB7C7B7A8B5C4636C1B
:1026B00069656E7469640D0A000000005741524E4E
:1026C0003A09C1ACBDD3CAA7B0DCA3BAB7FECEF1FC
:1026D000C6F7CAA7B0DC0D0A000000005741524EF1
:1026E0003A09C1ACBDD3CAA7B0DCA3BAD3C3BBA758
:1026F000C3FBBBF2C3DCC2EBB4EDCEF30D0A0000AA
:102700005741524E3A09C1ACBDD3CAA7B0DCA3BAF7
:10271000B7C7B7A8C1B4BDD328B1C8C8E7746F6B39
:10272000656EB7C7B7A8290D0A0000004552523A96
:1027300009C1ACBDD3CAA7B0DCA3BACEB4D6AAB483
:10274000EDCEF30D0A0000005741524E3A094D51AB
:1027500054545F5061636B6574436F6E6E65637450
:10276000204661696C65640D0A00000070B588B090
:1027700005460C46002004900590069007902346DD
:102780002A4610A1174800F0ABFF2046FDF732FDA6
:10279000064604A80121002200923346CDE901211A
:1027A0000390224629460A20FEF7FEFF38B9059A13
:1027B00091B20498FEF7CEFB04A8FEF70DFE08B018
:1027C00070BD00005075626C69736820546F706949
:1027D000633A2025732C204D73673A2025730D0A28
:1027E00000000000003801402DE9F04F8FB0814615
:1027F00000200B900C900D900E900A90099008907C
:102800000790002606900025002482464846FFF7E0
:102810004FFB0646F01E0D287ED2DFE800F02B9815
:10282000A1BBD7FDE0FDEFFDFDFD070007AB0AAA48
:1028300009A94846FFF7C6F90546D5B9BDF81C00F9
:1028400000908EA19648DDE9092300F049FF0BAA0C
:10285000DDE90901FEF712FE58B992A1904800F097
:102860003FFF0C9A91B20B98FEF774FB0BA8FEF792
:10287000B3FDD4E0914806A907AA0AABCDE900212F
:10288000029008AA09A94846FFF7F2F90546002D6B
:102890005CD1BDF81C000A99CDE90010BDF82030CC
:1028A00087A17F48099A00F01BFF0A9801F0DEFC1F
:1028B000074647B901F0B4FC83465A468FA17848D1
:1028C00000F00EFF0EE092A1384601F0AFFC80460A
:1028D000D8F8140018B100208F49086002E00120E8
:1028E0008D490860384601F06FFC9DF818000128FA
:1028F00002D0022828D114E00BA970480088FFF705
:102900002FF868B985A1664800F0EAFE0C9A91B2EA
:102910000B98FEF71FFB00E07EE00BA8FEF75CFDC6
:1029200013E00BA965480088FFF762F858B981A148
:102930005B4800F0D5FE0C9A91B20B98FEF70AFBAB
:102940000BA8FEF749FD00E000BF00BF67E0484666
:10295000FFF76EFA18B97DA1514800F0C1FE5EE0A4
:102960004846FFF783FAA0B980A14D4800F0B8FEB1
:102970000BA90A20FFF760F858B982A1484800F077
:10298000AFFE0C9A91B20B98FEF7E4FA0BA8FEF793
:1029900023FD44E0494801884846FFF776FAA0B98C
:1029A0007EA13F4800F09CFE0BA90A20FEF7FCFF29
:1029B00058B980A13A4800F093FE0C9A91B20B9856
:1029C000FEF7C8FA0BA8FEF707FD28E04846FFF718
:1029D0003EFA18B97EA1324800F082FE1FE0484658
:1029E000FFF7A0FA20B980A12D4800F079FE03E09E
:1029F00084A12B4800F074FE11E0FFE74846FFF782
:102A0000ABFA20B986A1264800F06AFE03E08BA14C
:102A1000234800F065FE02E04FF0FF3500BF00BF25
:102A2000FEF71AF9681C10B90FB0BDE8F08F7D21D0
:102A30000A98FDF7D5FB0446A4B1681C90B1641C4C
:102A400006E014F8012B50460AF1010A03A90A54C2
:102A50002078302802DB20783928F2DD03A8FDF742
:102A6000F3FB82460F2E01D0032E05D1099801F009
:102A7000CBFC0A9801F0C8FC00BFD5E7636D646920
:102A8000643A2025732C207265713A2025732C201E
:102A90007265715F6C656E3A2025640D0A00000056
:102AA00000380140546970733A0953656E642043DD
:102AB0006D64526573700D0A00000000B0130020B1
:102AC000746F7069633A2025732C20746F7069638A
:102AD0005F6C656E3A2025642C207061796C6F61A3
:102AE000643A2025732C207061796C6F61645F6C8F
:102AF000656E3A2025640D0A000000004572726F71
:102B000072206265666F72653A5B25735D00000036
:102B10004C45445F535700009481214254697073BF
:102B20003A0953656E64205075626C69736841633D
:102B30006B0D0A00546970733A0953656E64205036
:102B400075626C6973685265630D0A00546970732D
:102B50003A094D515454205075626C697368205382
:102B6000656E64204F4B0D0A0000000054697073BD
:102B70003A09526576205075626C697368526563D4
:102B80000D0A0000546970733A0953656E64205051
:102B900075626C69736852656C0D0A0054697073D4
:102BA0003A09526576205075626C69736852656C9B
:102BB0000D0A0000546970733A0953656E64205021
:102BC00075626C697368436F6D700D0A00000000D8
:102BD000546970733A09526576205075626C697356
:102BE00068436F6D700D0A00546970733A094D5156
:102BF000545420537562736372696265204F4B0DA4
:102C00000A000000546970733A094D51545420531E
:102C10007562736372696265204572720D0A000005
:102C2000546970733A094D51545420556E5375626E
:102C3000736372696265204F4B0D0A0054697073AB
:102C40003A094D51545420556E537562736372693D
:102C50006265204572720D0A0000000070B586B0F2
:102C600004460D4600260020029003900490059033
:102C700007E054F826200DA1124800F031FD701C29
:102C8000C6B2AE42F5DB02A82B46224600210090D8
:102C90001420FEF7F5FE38B9039A91B20298FEF7B8
:102CA00059F902A8FEF798FB06B070BD5375627320
:102CB000637269626520546F7069633A2025730DF1
:102CC0000A000000003801407047000029B1064AA0
:102CD000D2690243044BDA6104E0034AD2698243B9
:102CE000014BDA61704700000010024029B1064A2A
:102CF00012690243044B1A6104E0034A12698243D9
:102D0000014B1A61704700000010024029B1064AC9
:102D100092690243044B9A6104E0034A9269824338
:102D2000014B9A61704700000010024029B1064A29
:102D3000D2680243044BDA6004E0034AD26882435B
:102D4000014BDA60704700000010024030B50021EE
:102D50000022002400232D4D6D6805F00C0121B1E7
:102D6000042905D0082923D105E0294D056022E07A
:102D7000274D05601FE0254D6D6805F47012234D49
:102D80006D6805F48034022505EB92421CB9214D93
:102D9000554305600BE01D4D6D6805F400351DB110
:102DA0001C4D5543056002E0194D5543056002E096
:102DB000174D056000BF00BF144D6D6805F0F001B0
:102DC0000909154D6B5C0568DD4045600F4D6D6868
:102DD00005F4E061090A104D6B5C4568DD408560D3
:102DE0000A4D6D6805F46051C90A0B4D6B5C45686E
:102DF000DD40C560054D6D6805F44041890B074D08
:102E00006B5CC568B5FBF3F5056130BD0010024091
:102E100000127A0000093D0098130020A81300203A
:102E20007047000070B5044600251EE04FF4805145
:102E30000F48FEF747FA04F0800020B120210D482A
:102E4000FEF742FA03E020210A48FEF73BFA4FF46E
:102E500080510748FEF738FA4FF480510448FEF7D6
:102E600031FA6006040E681CC5B2082DDEDB70BDA9
:102E7000002001400014014010B500F001F810BD21
:102E80000CB50020019000903348006840F4803079
:102E90003149086000BF3048006800F400300090FD
:102EA0000198401C0190009818B90198B0F5A06FE6
:102EB000F1D12948006800F4003010B101200090E1
:102EC00001E0002000900098012843D123480068C9
:102ED00040F01000214908600846006820F0030017
:102EE00008600846006840F0020008601A48406820
:102EF000194948600846406848600846406840F400
:102F0000806048600846406820F47C1048600846AD
:102F1000406840F4E81048600846006840F080705F
:102F2000086000BF0C48006800F000700028F9D06D
:102F30000948406820F00300074948600846406897
:102F400040F00200486000BF0348406800F00C00F9
:102F50000828F9D10CBD00000010024000200240FA
:102F6000042808D14FF0E021096941F004014FF035
:102F7000E022116107E04FF0E021096921F004012E
:102F80004FF0E022116170477047000010B5134800
:102F9000006840F001001149086008464068104987
:102FA00008400E494860084600680E4908400B4931
:102FB00008600846006820F48020086008464068E1
:102FC00020F4FE0048604FF41F008860FFF754FFB4
:102FD0004FF000600449086010BD0000001002407E
:102FE0000000FFF8FFFFF6FE08ED00E010B501213C
:102FF000880700F006F9002847D00121880700F073
:10300000F1F82248006808B9012000E000201F49BB
:1030100008601023002211461046FFF7D1F9102353
:10302000012200211220FFF7CBF9102302220021F8
:103030002420FFF7C5F91023032200213620FFF7D3
:10304000BFF91023042200214820FFF7B9F91048E6
:1030500003781048027810A1134800F07FFB10237A
:10306000114A19460020FFF72FFA1048037810483C
:10307000027810A10C4800F071FB10230A4A2021AD
:103080000020FFF721FAFFF7F7F810BD9401234263
:10309000030000200200002054656D703A25642E64
:1030A00025642043000000004C190020010000208E
:1030B0000000002048756D3A25642E2564202525E2
:1030C000000000007FB505460C4601210846FFF7C9
:1030D000FDFDADF80850ADF804400020ADF80A0041
:1030E000ADF8060001A94FF0804000F0A5F80122DC
:1030F0001146900700F096F81C208DF80000002083
:103100008DF8010003208DF8020001208DF80300E6
:103110006846FEF72DFF0121880700F066F87FBDA5
:1031200010B50121124800F06CF8F8B101211048E7
:1031300000F058F80F48007870B10F480078462822
:1031400007DA0E480078242803DA00200C490860CA
:1031500002E001200A4908600648007830B90848B2
:103160000068012802D100200549086010BD000058
:1031700000040040040000200000002002000020A5
:10318000A08121427FB505460C4601210220FFF7B0
:103190009DFDADF80850ADF804400020ADF80A00E0
:1031A000ADF8060001A90E4800F046F801221146CC
:1031B0000B4800F037F81D208DF8000000208DF836
:1031C000010003208DF8020001208DF803006846FD
:1031D000FEF7CEFE0121024800F007F87FBD000097
:1031E00000040040CA430282704721B1028842F0C5
:1031F0000102028004E002884FF6FE731A4002804A
:10320000704730B50246002000230024158A05EAE5
:103210000103958905EA010413B10CB1012000E016
:10322000002030BD1AB183890B43838102E083897A
:103230008B43838170470000002202881D4B984217
:103240000ED01D4B98420BD0B0F1804F08D01B4BD5
:10325000984205D01A4B984202D01A4B984204D19A
:103260004FF68F731A404B881A43174B984207D07A
:10327000164B984204D04FF6FF431A40CB881A43AE
:1032800002808B8883850B8803850A4B98420BD07C
:10329000094B984208D00E4B984205D00D4B9842EE
:1032A00002D00D4B984201D10B7A03860123838211
:1032B00070470000002C0140003401400004004031
:1032C00000080040000C00400010004000140040C6
:1032D00000400140004401400048014010B540F268
:1032E0002551044800F09FF818B12021014800F052
:1032F00029F810BD0038014010B540F225510E48A4
:1033000000F091F8B0B10D480088802802D3002069
:103310000A4908800848001D0088C1B20748028891
:103320000088401C054B1880054881542021024824
:1033300000F008F810BD000000440040AC1300206D
:10334000681A002001F40072B2F5007F00D100BFBE
:10335000CA430280704721B1828942F400528281BF
:1033600004E082894DF6FF731A40828170470000A5
:1033700010B504462048844209D101218803FFF793
:10338000D5FC00214FF48040FFF7D0FC32E01B4811
:10339000844209D101214804FFF7A8FC00214FF421
:1033A0000030FFF7A3FC25E01548844209D1012134
:1033B0008804FFF79BFC00214FF48020FFF796FC68
:1033C00018E01048844209D10121C804FFF78EFC9F
:1033D00000214FF40020FFF789FC0BE00A488442EB
:1033E00008D101210805FFF781FC00214FF480106E
:1033F000FFF77CFC10BD0000003801400044004095
:1034000000480040004C00400050004002460020B0
:10341000B1F5007F00D100BF13880B400BB1012034
:1034200000E00020704770B502460024002300250C
:10343000002040F66A16B14200D100BFC1F3421528
:1034400001F01F03012606FA03F3012D02D196892C
:10345000334006E0022D02D1168A334001E0968AFD
:1034600033400C12012606FA04F41688344013B1D6
:103470000CB1012000E0002070BDF0B5034600242F
:1034800000260025002040F66A17B94200D100BF8F
:103490001846C1F3421401F01F06012707FA06F58A
:1034A000012C01D10C3004E0022C01D1103000E0DD
:1034B00014301AB107682F43076002E00768AF4372
:1034C0000760F0BD2DE9F04786B005460E460024A2
:1034D000A24600BFA1460027B08900B100BF2F4619
:1034E0002C8A4CF6FF700440F08804432C82AC898F
:1034F0004EF6F3100440B0883189084371890843BF
:103500000443AC81AC8A4FF6FF400440B0890443C9
:10351000AC8201A8FFF71AFC1F48874202D1DDF8F0
:1035200010A001E0DDF80CA0A88900F4004040B133
:103530000AEBCA0000EB0A1031684900B0FBF1F851
:1035400007E00AEBCA0000EB0A1031688900B0FB03
:10355000F1F86420B8FBF0F004012009642101FBBC
:103560001089A88900F4004040B1322000EBC90066
:10357000B0FBF1F000F00700044308E0322000EB5C
:1035800009106421B0FBF1F000F00F0004432C811E
:1035900006B0BDE8F087000000380140C1F3080222
:1035A0008280704700BFFEE710B586B00446012157
:1035B0008803FFF7ABFB01210420FFF7A7FB4FF4C3
:1035C0000070ADF8140003208DF8160018208DF857
:1035D000170005A91248FDF7E1FD4FF48060ADF832
:1035E000140004208DF8170005A90D48FDF7D6FD3D
:1035F00001940020ADF80800ADF80A00ADF80C0009
:10360000ADF810000820ADF80E0001A90548FFF73D
:1036100059FF01210348FFF79EFE06B010BD0000D0
:10362000000801400038014010B586B004464FF450
:10363000A060FEF7D5FC01214804FFF747FB0121FC
:103640000420FFF763FB2448FFF792FE0420ADF847
:10365000140003208DF8160018208DF8170005A916
:103660001E48FDF79BFD0820ADF8140004208DF8DE
:10367000170005A91948FDF791FD01940020ADF848
:103680000800ADF80A00ADF80C00ADF810000C20F1
:10369000ADF80E0001A91048FFF714FF20210E48D5
:1036A000FFF750FE012240F225510B48FFF7E5FEDF
:1036B00026208DF8000000208DF801008DF8020012
:1036C00001208DF803006846FEF752FC01210248F4
:1036D000FFF741FE06B010BD004400400008014065
:1036E0000FB430B5CBB0054601AC50A800904FF4F4
:1036F000947101A8009B4F9A00F044F800200090BC
:103700000BE014F8011B2846FFF748FF00BF4021DB
:103710002846FFF77BFE0028F9D020780028F0D15A
:103720004BB030BC5DF814FB2DE9F04107460C4668
:10373000154600260DE014F8011B3846FFF72EFF52
:1037400000BF40213846FFF761FE0028F9D0701C09
:1037500086B2AE42EFDBBDE8F08100000FB4084B4B
:1037600010B504A902AA039800F086F9044602A93C
:10377000002000F023FD204610BC5DF814FB000083
:10378000BD4100087CB5491E1C461546CDE9000127
:10379000044B6A462146284600F06EF9009A002143
:1037A00011707CBDA741000837B514460846064B8A
:1037B0006A46214600F060F904466946002000F0A0
:1037C000FDFC20463EBD0000BD410008490050EA16
:1037D000C12018BF04204A0D18BF40F0010040F27C
:1037E000FF72B2EB515F08BF40F00200012808BF32
:1037F0000520704700487047C81300202DE9F041AC
:103800004F1E00EBC7010446D1E9000115461E46D4
:1038100037F006020DD02A463346FCF7C9FD7F1E5D
:1038200004EBC703D3E90023FCF71BFD37F00602C6
:10383000F1D1022F25D0042F13D0062F18BFBDE8D9
:10384000F0812A463346FCF7B3FDD4E90A23FCF79E
:1038500008FD2A463346FCF7ABFDD4E90823FCF704
:1038600000FD2A463346FCF7A3FDD4E90623FCF706
:10387000F8FC2A463346FCF79BFDD4E90423FCF709
:10388000F0FC2A463346FCF793FDD4E90223FCF70B
:10389000E8FC2A463346FCF78BFDD4E90023BDE85B
:1038A000F041FCF7DEBC000000221346104601493F
:1038B000FCF745BF0000F03FFCF7D3BC00221346E5
:1038C00010461146FCF73BBF40F2013200204FF09A
:1038D000E041FCF7A3BF0000024A00201107FCF7FB
:1038E0009DBF000001FDFFFF02E008C8121F08C1D4
:1038F000002AFAD170477047002001E001C1121F71
:10390000002AFBD1704700000149086070470000A1
:10391000C81300202DE9FF5FDDE90220010DDDF86D
:1039200038B0024318D044F61050A1F2FF314143A1
:103930000D140F98012820D0A5EB0B00401C5FEA66
:10394000000A4FF00004474EDFF81C91A046504695
:1039500016D5CAF1000728E00F98012443A20128D8
:1039600008D0002100980F9BC0E90021C0E9024364
:10397000BDE8FF9F6FEA0B01F4E7CBF10000DEE743
:10398000074612E0F80707D022463346404649462C
:10399000FCF70EFD804689462246334610461946FE
:1039A000FCF706FD04460E467F10002FEAD1DDE944
:1039B0000201BAF1000F42464B4602DAFCF7F8FC6E
:1039C00001E0FCF7BCFE04460E460022284BFCF743
:1039D00091FD03D84FF0FF30014607E00022254B50
:1039E00020463146FCF73DFCFCF72FFF102409E090
:1039F000002C0ADB0A220023FCF7AAFD019B3032CF
:103A00001A55641E50EA0102F2D1641C019AC4F1F5
:103A1000110314440F9A012A03D0012208430DD147
:103A20000AE0084304D000204FF0110B0F9080E70C
:103A3000A3EB0B056D1E0DE05B4504DD4FF00002AE
:103A400005F1010504E003DA4FF00002A5F10105DC
:103A5000002AECD000980F99C0E90231C0E9004576
:103A600086E70000000024400000F03F3000000026
:103A70000000F0430000E03F2DE9FF4F95B09B466A
:103A80008946064600250FE2252877D100242746DF
:103A9000F84A0121059400E0044316F8013F203B59
:103AA00001FA03F01042F7D130782A2811D06FF0D4
:103AB0002F033078A0F13002092A16D8059A44F075
:103AC000020402EB820203EB42021044761C0590D2
:103AD000EFE759F8042B0592002A03DA504244F428
:103AE0000054059044F00204761C30782E2816D13C
:103AF00016F8010F44F004042A280DD06FF02F02AD
:103B00003078A0F13003092B09D807EB870302EBCB
:103B10004303C718761CF3E759F8047B761C30780A
:103B20006C280FD006DC4C2817D068280DD06A28E6
:103B300014D104E0742810D07A280FD10DE044F499
:103B400000140AE044F4801401E044F44014727854
:103B5000824202D104F58014761C761C30786628E7
:103B60000BD013DC582877D009DC002875D0452805
:103B7000F6D04628F4D047281AD19DE118E06328F2
:103B800035D0642879D0652812D195E1702873D09A
:103B900008DC6728F1D069286FD06E280DD06F2817
:103BA00006D1B5E073282CD0752875D0782874D04C
:103BB0005A46179990476D1C75E1C4F302500228CC
:103BC00009D003280DD0D9F8001004280DD00D60BD
:103BD00009F1040967E1D9F80010EA17C1E90052B8
:103BE000F6E7D9F800100D80F2E70D70F0E719F84C
:103BF000041B8DF8001000208DF80100EA4601201A
:103C000003E059F804AB4FF0FF3061074FF00001BB
:103C100002D40DE008F101018846B9420FDA80456F
:103C2000F8DB1AF808100029F4D108E008F10101C6
:103C300088468142FADB1AF808100029F6D1059867
:103C40005B46A0EB080721463846179A00F094FA25
:103C5000284400EB080507E04DE029E10DE01AF8E3
:103C6000010B5A4617999047B8F10108F7D25B4605
:103C700021463846179A13E142E00A220092C4F323
:103C800002524FF0000A022A08D059F804CB032A46
:103C90004FEAEC710AD00DE029E02AE009F10701B2
:103CA00021F00702F2E802C1914609E00FFA8CFC0C
:103CB0004FEAEC71042A03D14FFA8CFC4FEAEC7105
:103CC000002907DA0A460021DCF1000C61EB020151
:103CD0002D2202E0220504D52B228DF8042001229A
:103CE00003E0E20701D02022F7E7904659E00A21DD
:103CF00002E010220DE010214FF0000A00910BE0CD
:103D000010224FF0000A44F004040827009203E058
:103D100008224FF0000A0092C4F30252022A05D092
:103D200059F804CB0021032A08D009E009F1070162
:103D300021F00702F2E802C1914605E01FFA8CFC6F
:103D4000042A01D10CF0FF0C4FF00008220728D5FF
:103D5000702806D0009B83F0100353EA0A0305D0B5
:103D60000EE040228DF80420012208E05CEA010206
:103D700006D030228DF804208DF8050002229046EE
:103D8000009B83F0080353EA0A030AD15CEA0102AC
:103D900001D1620705D530228DF804204FF00108CB
:103DA0007F1E582804D034A003900EA802900DE086
:103DB00036A0F9E753466046009AFCF7C9FB8446F3
:103DC0000398825C0298401E029002705CEA010037
:103DD000F0D1029806A9081A00F1200A600702D55E
:103DE00024F4803400E00127574502DDA7EB0A00E8
:103DF00000E0002000EB0A01009005984144401AC1
:103E00000590E00306D45B462146179A059800F01A
:103E1000B3F90544002706E001A85A46C05D17998A
:103E200090476D1C7F1C4745F6DBE0030CD55B46D5
:103E30002146179A059800F09FF9054404E03020C8
:103E40005A46179990476D1C0099481E009000290A
:103E5000F5DC08E0029802995A460078491C029164
:103E6000179990476D1CBAF10001AAF1010AF1DC23
:103E700065E100000928010030313233343536372E
:103E800038396162636465660000000030313233A6
:103E90003435363738394142434445460000000046
:103EA00000F058F90544761C307800287FF4ECAD1A
:103EB00019B02846BDE8F08F620700D4062709F143
:103EC000070222F0070CFCE80223E14603F0004859
:103ED0005FEA080C02D00FF2702C0DE05FEA045C80
:103EE00002D50FF2682C07E05FEAC47C02D00FF223
:103EF000602C01E0AFF2700C4FF0FF3823F000436C
:103F0000CDF850C065280CD006DC452809D04628DD
:103F10001DD047283DD13DE0662818D067287ED1C6
:103F200038E00021112F01DB112000E0781CCDE9E1
:103F3000000106A90EA8FFF7EDFCDDE90F010E9ABE
:103F400003910021009207F1010A04914DE04FF026
:103F500000400097CDE9011006A90EA8FFF7DAFC92
:103F6000DDE90F0203920E9B11990022DDF80CA0EF
:103F70000093049211B9791C00EB010AB7EB0A0017
:103F800004D4C0F1FF3007F1010A0490AAEB070046
:103F9000019044E0012F00DA01270021112F01DDFB
:103FA000112000E03846CDE9000106A90EA8FFF770
:103FB000B1FCDDE90F010E9A0391002104910092FA
:103FC000BA4621070CD40399514500DA8A46BAF162
:103FD000010F05DD009AAAF10101515C302908D0DA
:103FE000B84202DA10F1040F06DA0121CDE901101E
:103FF00015E0AAF10101E9E7002805DC0499014474
:104000000491AAEB000102E0411C514500DD8A4603
:104010000499401A401C01904FF000400290200784
:1040200004D40198504501DBCDF8048000208DF8C0
:104030004F0002980DF14F07B0F1004F25D02B2013
:104040000E9002984FF0020800280CDA40420290CD
:104050002D200E9007E00A210298FCF763FA303118
:10406000029007F8011DB8F10001A8F10108F2DC87
:1040700002980028EFD1791E0E980870307800F071
:10408000200040F0450007F8020D12A8C01B00F107
:1040900007081498007800B1012000EB0A0101988C
:1040A00001EBE07105984144401A401E0590E00381
:1040B00006D45B462146179A059800F05DF8054442
:1040C0001498007818B15A46179990476D1CE00370
:1040D00024D55B462146179A059800F04DF8054413
:1040E0001CE00498002807DBDDE90301884203DDBA
:1040F0000098405C179901E0179930205A46904784
:10410000049805F10105401C04900198401E01909F
:1041100004D12E205A46179990476D1CBAF1000120
:10412000AAF1010ADDDC05E017F8010B5A461799E0
:1041300090476D1CB8F10001A8F10108F4DC5B4662
:104140002146179A0598ABE62D0000002B000000D1
:10415000200000002DE9F041044600251E461746C8
:10416000880404D405E039462020B0476D1C641E45
:10417000F9D52846BDE8F0812DE9F0410446002537
:104180001E469046C80301D5302700E0202788044A
:1041900004D505E041463846B0476D1C641EF9D58C
:1041A0002846BDE8F0814A68002A06D00A68531CF8
:1041B0000B6010704868401E486070470A68531CC6
:1041C0000B6010707047000070B5044622E025684F
:1041D000A08900F4807020B9A06810B1A068FFF732
:1041E000F3FFA08900F4807028B9206918B10B4949
:1041F000206909688847A08900F4007028B9206AFE
:1042000018B10649206A09688847204603490968A9
:1042100088472C46002CDAD170BD0000BC1300206A
:104220000148006870470000B413002070B50546CF
:104230000E46AC6800E024682CB13146206A00F0DC
:104240004FF80028F7D1204670BD000010B5282097
:1042500005490968884704461CB128212046FBF718
:10426000A2FF204610BD0000B813002010B5044680
:1042700000221146204600F001F810BD2DE9F0475C
:1042800080460D4616460024FFF7E0FF0746002053
:10429000124908600FB9BDE8F087404601F056FAB0
:1042A00081464946384600F017FD044624B9384691
:1042B000FFF78AFF0020EEE766B1204601F046FADC
:1042C0000446207830B13846FFF77EFF034804608B
:1042D0000020E0E705B12C603846DCE7B41300208D
:1042E00070B504460D462CB9AC4201D0012070BD1A
:1042F0000020FCE70DB90120F9E705E0207808B9B6
:104300000020F4E7641C6D1C2078FBF72DFF0646A7
:104310002878FBF729FF8642F0D02078FBF724FFAE
:1043200006462878FBF720FF301AE0E710B56FF05B
:104330000400FEF715FE0A4800680A49B0FBF1F0D8
:10434000094908700846007800EB4001C1EBC01035
:104350004FF6FF7101EAC0000449088010BD00005B
:104360000800002000127A00941300209613002009
:104370000146114A12884A434FF0E0235A61002255
:104380009A611A46126942F001021A6100BF4FF0A9
:10439000E022106900F001021AB100F48032002A14
:1043A000F5D04FF0E022126922F001024FF0E02335
:1043B0001A6100229A617047961300200146114A43
:1043C00012784A434FF0E0235A6100229A611A465C
:1043D000126942F001021A6100BF4FF0E022106939
:1043E00000F001021AB100F48032002AF5D04FF03B
:1043F000E022126922F001024FF0E0231A6100224C
:104400009A6170479413002010B5002821D0114BF9
:104410000022001F196803E0814203D80A46496858
:104420000029F9D152B11368841A9C4204D1006862
:1044300018441060104602E0506000E0186039B186
:1044400002680B1A934203D10B681A440260496850
:10445000416010BDC013002088B04C480068079030
:104460004BA30FCBCDE90523CDE9030100250024A3
:1044700001204B490870FCF7F1FAFCF769FFFFF7E0
:1044800055FF4FF4A060FDF7ABFDFCF77FFF41F651
:104490001F4141F28730FEF715FE41F61F4141F200
:1044A0008730FEF76FFE4FF4E130FFF77DF84FF4F1
:1044B000E130FFF7B9F8FDF727FE0020FDF7E2FD38
:1044C0000020FDF7EDFDFDF795FDFCF717FBFCF770
:1044D000F9FBFCF7B5FD03E04FF4FA70FFF748FF76
:1044E000FEF730F80028F7D101202E490860FA20A5
:1044F000FFF73EFF00202C49C1F8A001012107A8C9
:10450000FEF7ACFB40E0282095FBF0F100FB1150DA
:1045100088B9264B264A27492748FCF744FB2548FB
:1045200000780090244803782048027820480178D9
:1045300022A001F03BF9681C80B20546C82818DBB0
:1045400025A12A48FFF7CCF81A4800781A490978BB
:10455000CDE90010154803781548027824A12B48AE
:10456000FFF7FCF8294903A8FEF700F90025FCF73E
:1045700073FB0320FCF77EFB044614B12046FEF7D4
:1045800033F90A20FFF7F4FEBDE7000008580008E1
:104590002F736D617274686F6D652F7075620000A6
:1045A00004000020A081214200802142010000205F
:1045B000000000200300002002000020CAAAB6C8A4
:1045C000A3BA25642E256420CEC2B6C8A3BA25643A
:1045D0002E25640A000000004F6E654E65745F5022
:1045E00075626C6973680D0A0000000000380140B4
:1045F0007B2248756D223A25642E25642C22546551
:104600006D70223A25642E25647D0000CC130020B5
:10461000F0B50B30154D20F007010024144A0FE0CF
:1046200003688B420BD38B4205D95E1A4318476847
:10463000C3E9006700E04368136002C004E0021DA4
:1046400010680028ECD12046002802D1286808B163
:104650000020F0BD064A07481060074A121A22F0EF
:104660000702C0E9002401202860D7E7C413002016
:10467000C0130020EC1A0020E81C00202DE9F047B0
:1046800005460C4620785B2804D0264804600020AC
:10469000BDE8F0870520E860601C01F057F804468B
:1046A00020785D2801D1601CF2E7FFF7CFFD0646B8
:1046B000A860A86808B90020EAE7204601F046F89B
:1046C00080464146304600F007FB074601F03EF8C1
:1046D00004460CB90020DBE717E0FFF7B7FD070041
:1046E00000D1D5E737607E603E46601C01F02EF8B1
:1046F00081464946304600F0EFFA804601F026F840
:1047000004460CB90020C3E700BF20782C28E4D071
:1047100020785D2801D1601CBAE7024804600020BF
:10472000B6E70000B41300200146002208783028C4
:1047300006DB0878392803DC08783038024415E0B5
:104740000878412806DB0878462803DC08783738E3
:1047500002440BE00878612806DB0878662803DC51
:1047600008785738024401E0002070471201491CC4
:104770000878302806DB0878392803DC08783038D8
:10478000024415E00878412806DB0878462803DC57
:104790000878373802440BE00878612806DB08788F
:1047A000662803DC08785738024401E00020DCE783
:1047B0001201491C0878302806DB0878392803DC08
:1047C00008783038024415E00878412806DB08787C
:1047D000462803DC0878373802440BE00878612863
:1047E00006DB0878662803DC08785738024401E0C5
:1047F0000020BAE71201491C0878302806DB087847
:10480000392803DC08783038024415E0087841285C
:1048100006DB0878462803DC0878373802440BE0CA
:104820000878612806DB0878662803DC08785738A2
:10483000024401E0002098E7104696E72DE9F04F8A
:104840008BB083468A460020044605460026674F03
:104850000021884689460990012008909AF80000B6
:104860002D2802D1624F0AF1010A9AF8000030287F
:1048700001D10AF1010A9AF80000312822DB9AF8E6
:10488000000039281EDC00BF1AF8011BA1F130001E
:10489000FBF700FE0022574BCDE9060120462946D2
:1048A000FBF786FDCDE90401DDE90623FBF7D9FC22
:1048B00004460D469AF80000302803DB9AF8000001
:1048C0003928E1DD9AF800002E2830D19AF801004D
:1048D00030282CDB9AF80100392828DC0AF1010A7B
:1048E00000BF1AF8011BA1F13000FBF7D3FD002235
:1048F000404BCDE9060120462946FBF759FDCDE99D
:104900000401DDE90623FBF7ACFC04460D4600225A
:10491000364B40464946FBF745FD804689469AF8A6
:104920000000302803DB9AF800003928D9DD9AF816
:104930000000652803D09AF80000452823D10AF129
:10494000010A9AF800002B2802D10AF1010A08E0B6
:104950009AF800002D2804D14FF0FF3008900AF19A
:10496000010A08E01AF8010B3038099901EB8101BE
:1049700000EB410009909AF80000302803DB9AF818
:1049800000003928EEDDDDE9082101FB02F0FBF72C
:1049900081FD42464B46CDE90001FBF762FC024631
:1049A0000B46CDE902010020124900F0F3F922463E
:1049B0002B46CDE9060130463946FBF7F9FCCDE937
:1049C0000401DDE90623FBF7F3FC04460D46CBE9C1
:1049D000064520462946FBF76EFDCBF81400032060
:1049E000CBF80C0050460BB0BDE8F08F0000F03F54
:1049F0000000F0BF000024402DE9F04706460C46B9
:104A000020787B2804D0404804600020BDE8F0876F
:104A10000620F060601C00F099FE044620787D2896
:104A200001D1601CF2E7FFF711FC0546B060B068E9
:104A300008B90020EAE7204600F088FE804641469B
:104A4000284600F063F8074600F080FE04460CB9E3
:104A50000020DBE7286928620020286120783A28B6
:104A600003D0294804600020D0E7601C00F06EFEEF
:104A700080464146284600F02FF9074600F066FEC2
:104A800004460CB90020C1E731E0FFF7DFFB070067
:104A900000D1BBE72F607D603D46601C00F056FEF4
:104AA00081464946284600F031F8804600F04EFE27
:104AB00004460CB90020A9E7286928620020286173
:104AC00020783A2803D01048046000209EE7601C3C
:104AD00000F03CFE81464946284600F0FDF880463D
:104AE00000F034FE04460CB900208FE700BF2078A8
:104AF0002C28CAD020787D2801D1601C86E7024886
:104B00000460002082E70000B41300202DE9F05F6C
:104B10008346884608F10104002798F800002228FF
:104B200005D06A48C0F800800020BDE8F09F04E08E
:104B300014F8011B5C2900D1641C2078222804D0C1
:104B4000207810B1781C0700F2D1781C6049096800
:104B500088478146B9F1000F01D10020E5E708F14F
:104B600001044D469EE020785C2804D014F8010B27
:104B700005F8010B96E0641C2078722818D006DC3A
:104B8000622809D066280BD06E287DD10CE07428ED
:104B900012D07528F9D113E0082005F8010B7FE049
:104BA0000C2005F8010B7BE00A2005F8010B77E0EB
:104BB0000D2005F8010B73E0092005F8010B6FE0EB
:104BC000601CFFF7B1FD0646241DB6F55C4F02D30D
:104BD000B6F5604F00D306B962E0B6F5584F1CD366
:104BE000B6F55C4F19D260785C2802D1A0787528A0
:104BF00000D055E0E01CFFF797FD8246A41DBAF5F2
:104C00005C4F02D3BAF5604F00D349E0C6F3090107
:104C1000504661F39F2000F580360427802E01D294
:104C2000012708E0B6F5006F01D2022703E0B6F5D0
:104C3000803F00D203273D44012F20D0022F15D002
:104C4000032F0AD0042F24D106F0BF0040F08001CA
:104C5000681E05460170B60900BF06F0BF0040F0AF
:104C60008001681E05460170B60900BF06F0BF004E
:104C700040F08001681E05460170B60900BF154866
:104C8000C05D3043C1B200E006E0681E0546017019
:104C900000BF00BF3D4403E0207805F8010B00BFD2
:104CA00000BF641C2078222803D0207800287FF4DD
:104CB0005AAF002028702078222800D1641CCBF83D
:104CC00010900420CBF80C0020462EE7B4130020EF
:104CD000B8130020CC6F000870B505460C460CB91F
:104CE000002070BD042224A12046FBF79EFA18B9CB
:104CF0000220E860201DF4E7052221A12046FBF7F1
:104D000094FA18B90020E860601DEAE704221EA1A9
:104D10002046FBF78AFA20B90120E8606861201D6F
:104D2000DFE72078222804D121462846FFF7EEFE4F
:104D3000D7E720782D2805D02078302807DB207889
:104D4000392804DC21462846FFF778FDC9E720789A
:104D50005B2804D121462846FFF790FCC1E7207864
:104D60007B2804D121462846FFF746FEB9E70848CC
:104D700004600020B5E700006E756C6C0000000058
:104D800066616C7365000000747275650000000058
:104D9000B41300202DE9F04D16460F4694B01C4682
:104DA00021F0004123F00042002814BF4FF0010C15
:104DB0004FF0000C0CEB470CFE4B0CEB03054FEADD
:104DC000630C65452BD3350018BF012505EB440561
:104DD0001D44F94B9D4222D3F84B52EA060C02D0F7
:104DE0009F4205D148B914B000201946BDE8F08DA6
:104DF000002808BF4FF0000C01D04FF0010C0CEB65
:104E0000470313F5001F0AD8002E14BF4FF0010C02
:104E10004FF0000C0CEB440313F5001F07D914B03E
:104E2000324623463946BDE8F04DFEF745BDDFF872
:104E300090834FF0000A002FB8BF424523DAE14BC0
:104E40009A42A8BF4FF0020A1DDADC4B93421ADCEB
:104E5000DD4B03EB2253142B08DDC3F1340C26FA8F
:104E60000CF303FA0CFCB4450DD108E05EB9C3F1B4
:104E7000140C22FA0CF303FA0CFC944503D103F052
:104E80000103C3F1020A51EA00031BD1002C19DA15
:104E9000002F18BFBAF1020F02D0BAF1010F07D0EC
:104EA0000220FEF731FD14B0BDE8F04DFEF7FCBC6A
:104EB0000220FEF729FDFEF7F7FC14B081F0004157
:104EC000BDE8F08D330070D1424525D107F1804215
:104ED00012F5801201BF00280020B84914B008BFA5
:104EE000BDE8F08DB548884207DC002CA1BF18460C
:104EF000214614B0BDE8F08D07E0002CBFBF184676
:104F000084F0004114B0BDE8F08DB0497944D1E996
:104F1000000114B0BDE8F08DDFF8A0C262452AD1CF
:104F2000002C24DA39B1414517D1002804BF0020F4
:104F300002461CD106E040B10220FEF7E5FCFEF778
:104F4000C3FC0A46394600F0D7BA9D4A394614B028
:104F5000002062F31E01BDE8F08D08DA14B03B4674
:104F6000BDE8F04D024600206146FBF7E8BB14B0F7
:104F70003946BDE8F08D414517DAB4F1804F0CD0C9
:104F8000A4F10053B3F1FF530FD13B1E0DDB14B05E
:104F90001946BDE8F04D00F0E2BB3B4614B00246B6
:104FA000BDE8F04D1946FBF703BA050027F00043B2
:104FB0003AD1E1B1414537D1002F06DD002CA1BF28
:104FC0000020414614B0BDE8F08D002F01DD002C1B
:104FD0001FDB002F16DA002C14DBBAF1010F4FF0A3
:104FE000000014BF76497A4914B0BDE8F08DBAF1DB
:104FF000020F18BF002F0CD0BAF1010F09D1002FFA
:1050000007DA0BE0002FB8BF002C0DDABAF1010F60
:1050100004D0002014B00146BDE8F08D14B000208B
:105020004FF00041BDE8F08D4FF0010808EBE77C40
:10503000CDF814C05CEA0A0C0DD0DFF898C16245C7
:105040007EDDDFF894C1654B624512DD8B420ADBE1
:10505000002C18DB23E00120FEF756FC14B0BDE85D
:10506000F04DFEF72BBC554A8A4202DC002C0ADCCC
:1050700015E0994202DA002C11DA04E04F4B994214
:1050800019DD002C0BDD0220FEF73EFCFEF71CFCB8
:105090004B4A14B061F31E021146BDE8F08D0220A8
:1050A000FEF732FCFEF718FC444A14B061F31E020E
:1050B0001146BDE8F08D00223946FBF773F907462B
:1050C0000D466FF00102FBF7A9FB4FF05532444B40
:1050D000FBF76BF93A462B46FBF76AF90022414B86
:1050E000FBF763F980468B463A462B461046194635
:1050F000FBF75EF942465B46FBF75AF988460E908D
:105100004FF0C042384B38462946FBF751F98346E9
:105110000091364A344B41460E98FBF749F98046D8
:105120000191334A334B38462946FBF741F9424651
:10513000019BFBF737F90D4602460B460C9000E049
:1051400011E058460099FBF78CF8002788465A462C
:105150003846009BFBF726F92B460C9AFBF725F9FE
:10516000024600F079B90020B1F5801F07DA352238
:1051700028461946FBF752FB05466FF0340000EB5A
:105180002150A0F2FF300190C1F3130040F07F6185
:1051900041F04051029118498842D8BF4FF0000BAE
:1051A00035DD16498142C8BF4FF0010B2FDC4FF0AF
:1051B000000B25E0FFFF1F00FFFF0F000000F03F86
:1051C0000000F07F0000404301FCFFFF5021000081
:1051D0000000F0FF0000E0410000F043FFFFEF3F60
:1051E0005555D53F0000E03F4715F73FFE822B6540
:1051F00044DF5DF80BAE543E8E9803007AB60B0088
:105200000198401C01900298A0F580100290FF4880
:105210000299784400EBCB000991D0E9002328469D
:105220000B931292FBF7BEF800910A9028460B9B55
:10523000129A0999FBF715F802460B460020F4492B
:10524000FBF77DFACDE90C010B46024600990A985E
:10525000FBF7AEF80690EF4888460027784402999D
:10526000006810904FF0005040EA610000EB8B4066
:1052700000F5002102910B9B129A1098FBF792F80F
:105280002A46099BFBF791F83A464346FBF790F80C
:105290000891129038464146029B109AFBF788F815
:1052A000009B0A9AFBF781F8089B129AFBF77AF8A1
:1052B000DDE90C23FBF77CF80B91069A129043462C
:1052C00010461946FBF774F805460246D2480B46CD
:1052D0000A9106217844FEF791FA0A9B2A46089122
:1052E000029010461946FBF763F8089B029AFBF7F9
:1052F0005FF805460991434638461946069AFAF77B
:10530000B0FF0B9B129AFBF753F82A46099BFAF75A
:10531000A8FFCDE908013A46434610461946FBF777
:1053200047F80A910022BD4B0090FAF79AFFDDE999
:105330000823FAF796FF0D463A46B84B3846FBF776
:1053400031F80A9B009AFBF72DF8DDE90823FBF7FB
:105350002CF8CDE908013A462B4610464146FBF7AA
:1053600027F800910A90DDE908014346069AFBF709
:105370001FF8069088462B463A460B991298FBF781
:1053800017F84346069AFAF76CFF80460B4602462A
:105390000D9100990A98FAF764FF00200F46054620
:1053A000009B0A9AFAF7FEFF42460D9BFAF7FDFFB3
:1053B00088460E904FF06042994B28463946FAF7DE
:1053C000F7FF02910090974A954B41460E98FAF7E5
:1053D000EFFF80460391944A944B28463946FAF7EA
:1053E000E7FF4246039BFAF73CFF914A7A4402EBFF
:1053F000CB03D3E90023FAF734FF05460791019860
:10540000FBF748F80C9003912A46079B02990098F5
:10541000FAF727FF874A7A4402EBCB03D3E900234C
:1054200093460193FAF71DFF039B0C9AFAF719FFB5
:10543000002788463846039B0C9AFAF7B3FF5A4672
:10544000019BFAF7AFFF029B009AFAF7ABFF2A46DF
:10545000079BFAF7AAFF02460020069005986C4DBC
:10546000AAF10103184301D1734D069000200B46A9
:10547000049030462146FAF79BFF82468B4623462E
:1054800030461946049AFAF78DFF3A464346FAF732
:105490008FFF52465B46FAF7E4FE06468A463A46D6
:1054A000434621460498FAF783FF04460F463246E6
:1054B0005346FAF7D6FE614A8B46914221DBABEBAD
:1054C000020353EA000210D122463B46FAF76AFF74
:1054D000804603915A4A5B4B30465146FAF7C1FE6B
:1054E0004246039BFBF706F827D20220FEF70CFA90
:1054F000FEF7EAF90A46294614B062F31E01BDE838
:10550000F08D514B2BF000429A4216D34F4A0BEBD1
:10551000020353EA000208D122463B46FAF742FF53
:1055200032465346FAF7E6FF07D80220FEF7ECF9B9
:10553000FEF7D2F90A462946DEE72BF0004044493F
:10554000444A01EB20514FF00008824223DA481C04
:105550004FF4801121FA00F058443F4AC0F30A5139
:105560007A443E4BA1F2FF31CB4020EA0303C0F363
:10557000130040F4801CC1F1140012682CFA00F8EA
:10558000BBF1000FB8BFC8F1000820463946FAF752
:1055900009FF04460F4622463B4630465146FAF77D
:1055A00060FE4FF0000B5A462D4B58460391FAF718
:1055B000FFFE00910A902B4A2B4B58460399FAF7AD
:1055C000F7FE0491029022463B4658460399FAF7AB
:1055D000E9FE32465346FAF7E8FE244A244BFAF72E
:1055E000E7FE049B029AFAF73CFE07468A46009BB8
:1055F0000A9AFAF736FE04460E46009B0A9AFAF714
:10560000D1FE3A465346FAF7D0FE33E0C21D000001
:105610000000F03F001E0000301D000000000840A8
:1056200009C7EE3FFD033ADCF5015B14E02F3EBEF7
:10563000081C0000CE1B00000000F0BF00009040DE
:10564000FE822B654715973C00CC904000346F3F9D
:1056500001FCFFFF0000E03FFC1A0000FFFF0F000D
:10566000432EE63F396CA80C615C20BEEF39FAFE90
:10567000422EE63F0746224633460F911046194612
:10568000FAF796FE834602462E488A460B460521C7
:105690007844FEF7B3F85A465346FAF789FE224695
:1056A0003346FAF782FE82468B463A46204631461A
:1056B0000F9BFAF77DFE3A460F9BFAF7D2FD0F4695
:1056C0000A9000224FF0804350465946FAF76AFE8E
:1056D0000391009052465B4620463146FAF768FE39
:1056E000039B009AFBF72BF83B460A9AFAF75AFEFF
:1056F00022463346FAF756FE0022134BFAF755FEC0
:105700000E46044601EB08510815002810DC4246FD
:1057100020463146FBF782F8FEF758F8042808BF08
:10572000FEF7DAF8424620463146FBF777F80446A2
:1057300006980B4614B022462946BDE8F04DFAF70C
:1057400037BE0000A41900000000F03F00E0401C3C
:1057500020B1017811B101782029F8DD70472DE9D9
:10576000F04106460F46FBF7EEF804000D4618BF61
:105770000120284320F00040C0F17F6000F1E040AC
:10578000C00F0ED0301C18BF0120384320F000405D
:10579000C0F17F6000F1E040C00F04BF0120FEF7C0
:1057A000B3F820462946BDE8F08100000FB438B5B3
:1057B00005A800901248009A0499FDF7F5FF002013
:1057C00000900F48FAF716FD054600BF0D48008807
:1057D00000F040000028F9D000240CE00848005DEB
:1057E0000849091D088000BF0648008800F04000F5
:1057F0000028F9D0641CAC42F0D338BC5DF814FB2F
:105800006819002000380140F07000080000000016
:105810000000000000000000000000003F40000009
:105820000000000000003000400030004000000098
:1058300009000BC03D000BC03D00090018C024400A
:105840007FE0224031800000180024C01B000D8042
:105850003240018003801C4027401C8007400040EC
:1058600010006000000000000000000000000000C8
:1058700000001F80204040200000402020401F806A
:1058800000000000090006001F800600090000005B
:10589000040004003F8004000400000000100060C9
:1058A00000000000000000000400040004000400E8
:1058B00004000000000000400000000000000000A4
:1058C000002001C006003800400000001F8020407A
:1058D000204020401F800000000010403FC00040DA
:1058E0000000000018C02140224024401840000061
:1058F00010802040244024401B80000002000D0046
:1059000011003FC0014000003C802440244024405E
:10591000238000001F802440244034400380000086
:105920003000200027C03800200000001B802440E9
:10593000244024401B8000001C0022C02240224042
:105940001F80000000000000084000000000000070
:1059500000000000046000000000000000000400DF
:105960000A001100208040400900090009000900D8
:105970000900000000004040208011000A000400DF
:105980001800200023402400180000001F80204041
:10599000274029401F400000004007C039000F0089
:1059A00001C0004020403FC0244024401B80000034
:1059B0001F802040204020403080000020403FC019
:1059C000204020401F80000020403FC024402E4047
:1059D00030C0000020403FC024402E0030000000B6
:1059E0000F001080204022403380020020403FC042
:1059F000040004003FC02040204020403FC0204021
:105A0000204000000060202020203FC02000200017
:105A100020403FC024400B0030C0204020403FC009
:105A200020400040004000C03FC03C0003C03C009C
:105A30003FC0000020403FC00C4023003FC020007A
:105A40001F802040204020401F80000020403FC099
:105A500024402400180000001F802140214020E045
:105A60001FA0000020403FC02440260019C0004075
:105A700018C02440244022403180000030002040E3
:105A80003FC020403000000020003F800040004028
:105A90003F80200020003E0001C0070038002000A9
:105AA000380007C03C0007C038000000204039C063
:105AB000060039C0204000002000384007C03840B0
:105AC00020000000304021C02640384020C00000A7
:105AD000000000007FE04020402000000000700037
